:100000000C9463000C948B000C948B000C948B006C
:100010000C948B000C948B000C948B000C948B0034
:100020000C948B000C948B000C948B000C948B0024
:100030000C948B000C948B000C948B000C948B0014
:100040000C9465080C948B000C9433080C940D08E8
:100050000C948B000C948B000C948B000C948B00F4
:100060000C948B000C948B000000000024002700EF
:100070002A0000000000250028002B0000000000DE
:1000800023002600290004040404040404040202DA
:100090000202020203030303030301020408102007
:1000A0004080010204081020010204081020000012
:1000B0000008000201000003040700000000000027
:1000C0000000AF08C80C11241FBECFEFD8E0DEBF80
:1000D000CDBF11E0A0E0B1E0E4E5F0E202C00590A0
:1000E0000D92AA3FB107D9F722E0AAEFB1E001C013
:1000F0001D92A93EB207E1F710E0C2E6D0E004C0CD
:100100002197FE010E941C0EC136D107C9F70E943B
:10011000ED080C941D100C940000AF92BF92CF928A
:10012000DF92EF92FF920F931F93CF93DF936C01B7
:100130007B018B01040F151FEB015E01AE18BF0898
:10014000C017D10759F06991D601ED91FC9101904A
:10015000F081E02DC6010995892B79F7C501DF9162
:10016000CF911F910F91FF90EF90DF90CF90BF90B4
:10017000AF900895FC01538D448D252F30E0842FDE
:1001800090E0821B930B541710F0CF9608950197BF
:100190000895FC01918D828D981761F0A28DAE0FAC
:1001A000BF2FB11D5D968C91928D9F5F9F73928F33
:1001B00090E008958FEF9FEF0895FC01918D828D5F
:1001C000981731F0828DE80FF11D858D90E008952C
:1001D0008FEF9FEF0895FC01918D228D892F90E084
:1001E000805C9F4F821B91098F739927089586E346
:1001F00092E00E94EB0021E0892B09F420E0822F9D
:10020000089580E090E0892B29F00E94F700811189
:100210000C9400000895FC01A48DA80FB92FB11D06
:10022000A35ABF4F2C91848D90E001968F7399272C
:10023000848FA689B7892C93A089B1898C9183700A
:1002400080648C93938D848D981306C00288F38903
:10025000E02D80818F7D80830895EF92FF920F9330
:100260001F93CF93DF93EC0181E0888F9B8D8C8D62
:1002700098131AC0E889F989808185FF15C09FB756
:10028000F894EE89FF896083E889F9898081837019
:10029000806480839FBF81E090E0DF91CF911F91C8
:1002A0000F91FF90EF900895F62E0B8D10E00F5FE9
:1002B0001F4F0F731127E02E8C8D8E110CC00FB6BF
:1002C00007FCFACFE889F989808185FFF5CFCE0157
:1002D0000E940B01F1CFEB8DEC0FFD2FF11DE35AC6
:1002E000FF4FF0829FB7F8940B8FEA89FB898081DA
:1002F0008062CFCFCF93DF93EC01888D8823B9F054
:10030000AA89BB89E889F9898C9185FD03C0808120
:1003100086FD0DC00FB607FCF7CF8C9185FFF2CF9D
:10032000808185FFEDCFCE010E940B01E9CFDF91E7
:10033000CF910895833081F028F4813099F0823094
:10034000A9F008958730A9F08830C9F08430B1F45D
:10035000809180008F7D03C0809180008F77809393
:100360008000089584B58F7784BD089584B58F7D0E
:10037000FBCF8091B0008F778093B000089580917B
:10038000B0008F7DF9CFCF93DF93282F30E0F901B4
:10039000E255FF4F8491F901E656FF4FD491F901E0
:1003A000EA57FF4FC491CC23A1F081110E949A011A
:1003B000EC2FF0E0EE0FFF1FE458FF4FA591B49132
:1003C000EC91ED2381E090E009F480E0DF91CF91A2
:1003D000089580E090E0FACF1F93CF93DF93282F0A
:1003E00030E0F901E255FF4F8491F901E656FF4FE5
:1003F000D491F901EA57FF4FC491CC23A9F0162FED
:1004000081110E949A01EC2FF0E0EE0FFF1FEE58D1
:10041000FF4FA591B4918FB7F894EC91111108C0DA
:10042000D095DE23DC938FBFDF91CF911F9108958C
:10043000DE2BF8CFCF93DF9390E0FC01E656FF4F21
:1004400024918A579F4FFC0184918823C9F090E042
:10045000880F991FFC01E859FF4FA591B491FC0149
:10046000EE58FF4FC591D49161110DC09FB7F8941C
:100470008C91209582238C938881282328839FBF89
:10048000DF91CF910895623051F49FB7F8943C9179
:10049000822F809583238C93E8812E2BEFCF8FB70B
:1004A000F894EC912E2B2C938FBFEACF1F93CF9310
:1004B000DF93182FEB0161E00E941A02209739F4B4
:1004C00060E0812FDF91CF911F910C94EC01CF3F21
:1004D000D10511F461E0F5CFE12FF0E0E255FF4FD7
:1004E000E491E33031F140F4E130B1F0E230E1F099
:1004F000C038D1057CF7E4CFE73029F1E83059F175
:10050000E430B1F780918000806280938000D093C6
:100510008B00C0938A0004C084B5806884BDC7BDC9
:10052000DF91CF911F91089584B5806284BDC8BDCD
:10053000F7CF80918000806880938000D0938900FD
:10054000C0938800EDCF8091B00080688093B000A8
:10055000C093B300E5CF8091B00080628093B0007B
:10056000C093B400DDCF8E50806480937C00809176
:100570007A00806480937A0080917A0086FDFCCFB7
:10058000809178009091790008953FB7F894809118
:10059000050290910602A0910702B091080226B5CB
:1005A000A89B05C02F3F19F00196A11DB11D3FBFAB
:1005B000BA2FA92F982F8827BC01CD01620F711D7A
:1005C000811D911D42E0660F771F881F991F4A9574
:1005D000D1F708952FB7F89460910102709102024B
:1005E00080910302909104022FBF08950F931F93EF
:1005F0000E94EA0260933E0270933F0280934002A1
:100600009093410286E392E00E94C90097FF1DC0CB
:100610000E94EA0200913E0210913F0220914002A6
:1006200030914102601B710B820B930B00913A02D7
:1006300010913B0220913C0230913D0260177107FE
:1006400082079307F8F28FEF9FEF1F910F910895A4
:100650008F929F92AF92BF92CF92DF92EF92FF92D2
:100660000F931F93CF93DF9380910201882309F4A6
:1006700095C080912702882309F4A4C00E94EA0251
:10068000C0902102D0902202E0902302F090240238
:100690009B01AC012C193D094E095F0969017A01E2
:1006A0003EE5C31631E0D306E104F10408F434C199
:1006B000609321027093220280932302909324027C
:1006C0001091200281E018271093200280912502CA
:1006D00090912602019690932602809325028091A4
:1006E0003002D0912C02C0912D02882399F18FE025
:1006F0000E94B3029C01A1E0BFEF0E940D0ED0E06A
:10070000613071408C4F9F4F0CF446C08FE00E94C7
:10071000B3029C01A1E0BFEF0E940D0EDFEF6F3F1F
:10072000734081059105C4F58FE00E94B3029C01DE
:10073000A1E0BFEF0E940D0E2FEF33E040E050E04C
:100740000E94730DDA01C90181509F4FAF4FBF4F17
:10075000D82FC92F112311F11091000160E070E032
:10076000112311F06D2F7C2F89E00E945602112376
:1007700011F0D0E0C0E06D2F7C2F8AE0DF91CF91A7
:100780001F910F91FF90EF90DF90CF90BF90AF90AF
:100790009F908F900C945602C0E0DCCF60E089E01F
:1007A0000E94EC0160E08AE0DF91CF911F910F91F0
:1007B000FF90EF90DF90CF90BF90AF909F908F9081
:1007C0000C94EC0180913002882309F49EC08FE0E4
:1007D0000E94B3029C01A1E0BFEF0E940D0ED0E089
:1007E000C0E0613071408C4F9F4F14F18FE00E9448
:1007F000B3029C01A1E0BFEF0E940D0ECFEFD0E04D
:100800006F3F7340810591059CF48FE00E94B30215
:100810009C01A1E0BFEF0E940D0E2FEF33E040E0FE
:1008200050E00E94730D21503F4F4F4F5F4FE90141
:100830006FEF70E082E10E9456020E94EA026B01B3
:100840007C01A091FE01B091FF01AC17BD0709F436
:100850004DC04091FA015091FB016091FC017091F3
:10086000FD014115510561057105A1F146015C01CC
:10087000841A950AA60AB70AA50194010E949D0D43
:1008800000910C0210910D0220910E0230910F0286
:10089000DC01CB01800F911FA21FB31F80930C02BC
:1008A00090930D02A0930E02B0930F02809110025C
:1008B00090911102A0911202B0911302880E991E1C
:1008C000AA1EBB1E8092100290921102A0921202E8
:1008D000B0921302D093FF01C093FE01C092FA01BF
:1008E000D092FB01E092FC01F092FD011091000119
:1008F00060E070E01111BE0189E00E9456021123F0
:1009000011F0D0E0C0E0BE0138CFC0912C02D091F0
:100910002D0270E060E08ECFDF91CF911F910F919B
:10092000FF90EF90DF90CF90BF90AF909F908F900F
:100930000895FC0101900020E9F73197AF01481BB1
:10094000590BBC0186E392E00C948D00CF93DF93AA
:10095000D0E0C0E0009719F00E949904EC018BE10F
:1009600091E00E9499048C0F9D1FDF91CF91089513
:10097000CF93DF93FC01448155816081718186E3CF
:1009800092E00E948D00EC018BE191E00E949904BD
:100990008C0F9D1FDF91CF910895AF92BF92CF92A0
:1009A000DF92EF92FF920F931F93CF93DF93DC01BF
:1009B000CD90DC901197C114D10439F01496CD91EB
:1009C000DC918C017601209761F4DF91CF911F912A
:1009D0000F91FF90EF90DF90CF90BF90AF90089570
:1009E00075015701BFEFAB1ABB0AF7018081082ED2
:1009F000000C990B0E94570D892B91F72197CC0D74
:100A0000DD1D8881082E000C990B0E94570D892B43
:100A100029F0CE15DF0510F02197F3CFAE014F5F1F
:100A20005F4F4E195F09D80115965C934E9314974A
:100A3000CE14DF0420F4B701C6010E940410D801CF
:100A4000ED91FC91119714968D919C91E80FF91FEF
:100A50001082BBCFFC0124813581FB01448155818B
:100A600024173507E1F4FC0180819181FB0160814D
:100A700071810097D1F061157105A1F4232BC1F0AC
:100A8000FC01808190E008C0232B91F0FB01808164
:100A900090E091958195910921E0892B09F020E062
:100AA000822F08950E940D10F7CF6115710561F72F
:100AB00021E0F6CF0F931F93CF93DF93EC01888152
:100AC0009981009759F02A813B812617370730F02A
:100AD00081E0DF91CF911F910F9108958B016F5F9E
:100AE0007F4F0E94470F009759F0998388831B839B
:100AF0000A832C813D81232B59F7FC011082E8CF1A
:100B000080E0E7CFEF92FF920F931F93CF93DF9395
:100B10006115710541F480E0DF91CF911F910F9134
:100B2000FF90EF90089541155105B1F07B01EC0164
:100B30000C811D81040F151FB8010E945A058823DE
:100B400051F3288139818C819D81B701820F931FD8
:100B50000E9416101D830C8381E0DECFCF93DF93BC
:100B6000EC0188819981009711F00E94BE0E1982D4
:100B700018821D821C821B821A82DF91CF910895F8
:100B8000CF93DF93EC01FB0101900020E9F731974F
:100B9000AF01461B570B0E948205811103C0CE0195
:100BA0000E94AE05CE01DF91CF910895CF93DF93E0
:100BB000EC01FB0144815581608171810E948205B5
:100BC000811103C0CE010E94AE05CE01DF91CF910D
:100BD0000895EF92FF920F931F93CF93DF93EC0151
:100BE0007B018A01BA010E945A0581110BC0CE0116
:100BF0000E94AE05CE01DF91CF911F910F91FF9022
:100C0000EF9008951D830C83B701888199810E941C
:100C10001610F0CFFB0101900020E9F73197AF01EA
:100C2000461B570B0C94E9050F931F93CF93DF934B
:100C3000CDB7DEB762970FB6F894DEBF0FBECDBF5B
:100C40008C01CB01F801118210821382128215826D
:100C500014824AE0BE016F5F7F4F0E94FB0CBE0111
:100C60006F5F7F4FC8010E940A0662960FB6F89424
:100C7000DEBF0FBECDBFDF91CF911F910F910895C1
:100C8000CF93DF93EC01FB018617970749F0608152
:100C900071816115710541F0448155810E94E9051A
:100CA000CE01DF91CF9108950E94AE05F9CFFC01EE
:100CB000118210821382128215821482FB0101902C
:100CC0000020E9F73197AF01461B570B0C94E9055B
:100CD000AF92BF92CF92DF92EF92FF920F931F934A
:100CE000CF93DF936C015B017A01890124173507EB
:100CF00020F48F2D7901042F182F6DE171E0C601CA
:100D00000E945706D5011496CD91DC91EC16FD0694
:100D1000E0F40C171D0708F4E801D501ED91FC91F2
:100D20001197EC0FFD1F108110826D917C916E0D5B
:100D30007F1DC60161157105A1F00E940A06F5012B
:100D400080819181C80FD91F1883C601DF91CF918F
:100D50001F910F91FF90EF90DF90CF90BF90AF90D9
:100D600008950E94AE05EBCFFC0180819181009730
:100D700011F00C94BE0E0895CF93DF93CDB7DEB77C
:100D8000AA970FB6F894DEBF0FBECDBF8091300298
:100D900060912C0270912D02882379F18FE00E94DE
:100DA000B3029C01A1E0BFEF0E940D0E61307140C3
:100DB0008C4F9F4F0CF42BC18FE00E94B3029C011B
:100DC000A1E0BFEF0E940D0E6F3F734081059105BA
:100DD0000CF020C18FE00E94B3029C01A1E0BFEFA4
:100DE0000E940D0E2FEF33E040E050E00E94730DA3
:100DF00021503F4F4F4F5F4FB901CE0149960E949E
:100E000014066091300270E0CE0143960E941406F1
:100E10006091000170E0CE010D960E941406609171
:100E2000020170E0CE0107960E9414066EE171E0A7
:100E3000CE0101960E945706BE01695F7F4FCE0129
:100E400001960E94D6056FE171E00E94C005BE01C7
:100E5000635F7F4F0E94D6056FE171E00E94C0057D
:100E6000BE016D5E7F4F0E94D6056FE171E00E946A
:100E7000C005BE01675E7F4F0E94D6056CE171E040
:100E80000E94C00518A21F8E1AA219A21CA21BA2A2
:100E9000BC01CE014F960E944006CE0101960E94F1
:100EA000B406CE0107960E94B406CE010D960E94AC
:100EB000B406CE0143960E94B406CE0149960E9424
:100EC000B4062091DD023091DE0243E050E069ED8E
:100ED00072E0CE0149960E94680623E030E042E0CD
:100EE00050E069ED72E0CE0143960E94680622E070
:100EF00030E041E050E069ED72E0CE010D960E94D5
:100F0000680621E030E050E040E069ED72E0CE019B
:100F100007960E9468066EE171E0CE0101960E947C
:100F20005706BE01695F7F4FCE0101960E94D6052C
:100F30006FE171E00E94C005BE01635F7F4F0E94B8
:100F4000D6056FE171E00E94C005BE016D5E7F4F66
:100F50000E94D6056FE171E00E94C005BE01675E88
:100F60007F4F0E94D6056CE171E00E94C0051EA271
:100F70001DA218A61FA21AA619A6BC01CE0185960D
:100F80000E944006CE0101960E94B406CE0107964B
:100F90000E94B406CE010D960E94B406CE0143967F
:100FA0000E94B406CE0149960E94B4066FED72E02D
:100FB000CE014F960E942A05811118C0BE016B5DBB
:100FC0007F4FCE014F960E942A0581110FC0BE01AE
:100FD000615E7F4F8FED92E00E944006CE014F96FA
:100FE0000E94B80486E392E00E947A01CE018596C1
:100FF0000E94B406CE014F960E94B406AA960FB680
:10100000F894DEBF0FBECDBFDF91CF91089570E0A1
:1010100060E0F3CE6FEF70E0F0CE1F920F920FB64C
:101020000F9211242F933F934F935F936F937F936E
:101030008F939F93AF93BF93EF93FF9386E392E0D9
:101040000E940B01FF91EF91BF91AF919F918F9102
:101050007F916F915F914F913F912F910F900FBEB4
:101060000F901F9018951F920F920FB60F92112498
:101070002F938F939F93EF93FF93E0914602F0910C
:1010800047028081E0914C02F0914D0282FD1BC02D
:10109000908180914F028F5F8F7320915002821751
:1010A00041F0E0914F02F0E0EA5CFD4F958F8093B4
:1010B0004F02FF91EF919F918F912F910F900FBE53
:1010C0000F901F9018958081F4CF1F920F920FB64A
:1010D0000F9211242F933F938F939F93AF93BF93BE
:1010E0008091010290910202A0910302B09104024A
:1010F0003091000223E0230F2D3758F50196A11DF2
:10110000B11D209300028093010290930202A093EC
:101110000302B09304028091050290910602A0910F
:101120000702B09108020196A11DB11D809305022E
:1011300090930602A0930702B0930802BF91AF916B
:101140009F918F913F912F910F900FBE0F901F9005
:10115000189526E8230F0296A11DB11DD2CFE6E314
:10116000F2E01382128288EE93E0A0E0B0E0848384
:101170009583A683B7838DE091E09183808385EC8E
:1011800090E09587848784EC90E09787868780EC51
:1011900090E0918B808B81EC90E0938B828B82EC42
:1011A00090E0958B848B86EC90E0978B868B118EEC
:1011B000128E138E148E6DE171E08FED92E00E941D
:1011C00057066DE171E089ED92E00E9457066DE1EE
:1011D00071E083ED92E00C945706CF93DF93CDB787
:1011E000DEB7E3970FB6F894DEBF0FBECDBF78949D
:1011F00084B5826084BD84B5816084BD85B582601C
:1012000085BD85B5816085BD80916E0081608093CC
:101210006E00109281008091810082608093810035
:101220008091810081608093810080918000816045
:10123000809380008091B10084608093B1008091A0
:10124000B00081608093B00080917A0084608093C8
:101250007A0080917A00826080937A0080917A008F
:10126000816080937A0080917A00806880937A0010
:101270001092C10060E08FE00E941A0260E08EE0F0
:101280000E941A0262E08DE00E941A0262E08CE085
:101290000E941A0261E082E10E941A0261E089E084
:1012A0000E941A0261E08AE00E941A02E09146025E
:1012B000F091470282E08083E0914202F091430284
:1012C0001082E0914402F09145028FEC80831092ED
:1012D0004E02E0914A02F0914B0286E08083E09159
:1012E0004802F0914902808180618083E091480248
:1012F000F0914902808188608083E0914802F091FA
:101300004902808180688083E0914802F09149021F
:1013100080818F7D80838DE00E94C30190931F02A6
:1013200080931E028CE00E94C30190931902809367
:10133000180260E089E00E94EC0160E08AE00E940F
:10134000EC010E94EA0260933102709332028093B2
:1013500033029093340288248A9423E0922EA12CA5
:10136000B12C3324339411E086E392E00E94EB0029
:10137000181619060CF0B6C06DE171E0CE01829628
:101380000E9457060E94F60297FD0FC08A30910511
:1013900061F089831A8241E050E0BE016F5F7F4FA8
:1013A000CE0182960E948205EDCFCE0182960E94E8
:1013B000CD042EA13FA12430310508F488C05090FF
:1013C00002016090000170903002C0902C02D09019
:1013D0002D028AA19BA1FC01009721F41092090221
:1013E000E9E0F2E0FF24F3944081413309F0F12C6D
:1013F000F0920201FC013196009721F4109209024B
:10140000E9E0F2E001E04081413309F000E00093BF
:101410000001009709F060C01092090289E092E093
:1014200044244394FC018081813309F0412C409293
:10143000300243E050E0BE016E5D7F4FCE01019669
:101440000E946806CE0101960E94CD048D819E8186
:10145000892B79F089819A81009709F43FC00E9415
:10146000D40C6F3F710509F020F470932D02609346
:101470002C02CE0101960E94B4065F100BC06012D0
:1014800009C0741007C080912C0290912D02C816DB
:10149000D906E9F0109301010E94EA02609331023B
:1014A000709332028093330290933402BE016E5DDA
:1014B0007F4F89ED92E00E94400683E391E00E9415
:1014C0009904CE0182960E94B8040E942803CE019E
:1014D00082960E94B40648CF0296A2CF60E070E0E8
:1014E000CB01BFCF8EE00E94B3029C01A1E0BFEF11
:1014F0000E940D0E613071408C4F9F4F0CF069C1FE
:1015000010920201809135028111A3C00E94EA026B
:101510002B013C01209110023091110240911202E6
:1015200050911302211531054105510509F4A6C159
:1015300060910C0270910D0280910E0290910F0249
:101540000E94DC0D30930B0220930A021BA21AA208
:101550001DA21CA21FA21EA22AE0AE014F5F5F4F78
:10156000C301B2010E941B0DBE016F5F7F4FCE0110
:1015700082960E940A0669E471E0CE0101960E94FB
:101580005706BE016E5D7F4FCE0101960E94D605C3
:101590006CE171E00E94C0051FA61EA619AA18AA38
:1015A0001BAA1AAABC01CE018E960E944006CE014B
:1015B00001960E94B406CE0182960E94B406609104
:1015C0000A0270910B02CE0182960E9414066CE40E
:1015D00071E0CE0101960E945706BE016E5D7F4FFD
:1015E000CE0101960E94D6056CE171E00E94C00513
:1015F00019A618A61BA61AA61DA61CA6BC01CE01DC
:1016000088960E944006CE0101960E94B406CE0143
:1016100082960E94B40680910A0290910B02815B2F
:101620009E4F0E94A604CE018E960E94B804CE0161
:1016300088960E94B80486E392E00E947A01109393
:101640003502CE0188960E94B406CE018E960E9485
:10165000B4060E94BC068DE00E94C3016C01892B78
:1016600009F415C1D0921F02C0921E028CE00E94A4
:10167000C3016C01892BA9F5809118029091190280
:10168000019779F50E94EA024090140250901502E9
:1016900060901602709017026419750986099709FF
:1016A0006333710581059105E0F080910001832588
:1016B000809300018EE691E00E94990480910001E0
:1016C000882309F41EC188E291E00E94A6040E94CA
:1016D000EA026093140270931502809316029093AD
:1016E0001702D0921902C092180280910201882339
:1016F000F1F00E94EA0220912702222309F404C19A
:1017000020912502309126022A30310584F0109272
:10171000270210920101609331027093320280938C
:1017200033029093340288E791E00E94A6040E945D
:1017300028030E94EA0240902802509029026090FB
:101740002A0270902B026419750986099709643F73
:1017500071408105910560F00E94EA0260932802C1
:101760007093290280932A0290932B020E94BC0658
:101770000E94C5026B017C0182E3482E512C612C32
:10178000712C0E94C5026C197D098E099F09683E63
:10179000734081059105A8F381E0481A510861085A
:1017A0007108E8EECE0EE3E0DE1EE11CF11C4114F0
:1017B00051046104710429F780E090E0892B09F459
:1017C000D3CD0E94F700882309F4CBCD0E940000FE
:1017D000C8CD8EE00E94B3029C01A1E0BFEF0E9441
:1017E0000D0E6F3F7340810591050CF04CC08EE0EB
:1017F0000E94B3029C01A1E0BFEF0E940D0EA50163
:1018000094010E94730D69017A018FEFC80ED11CFB
:10181000E11CF11CC114D10409F472CE1093020131
:1018200010923502109301010E94EA026093310286
:10183000709332028093330290933402809130028D
:10184000811107CF80912E0290912F028C159D055A
:1018500009F4FFCED0922F02C0922E0296012F3FA4
:10186000310519F014F02FEF30E037FF02C030E0FF
:1018700020E030932D0220932C02EBCE10920B022D
:1018800010920A0263CECC24CA94D12CC7CF809187
:101890001E0290911F02019709F0E4CE0E94EA0215
:1018A00040901A0250901B0260901C0270901D0222
:1018B00064197509860997096333710581059105D6
:1018C00008F4D0CE809130028325809330028FE5DA
:1018D00091E00E94990480913002882379F081E29E
:1018E00091E00E94A6040E94EA0260931A0270939B
:1018F0001B0280931C0290931D02B4CE84E291E0FF
:10190000F0CF8EE291E0E1CE409031025090320271
:1019100060903302709034029B01AC0124193509A8
:101920004609570929013A01209101012223D9F0E2
:1019300030E1431637E253066104710408F4F7CE30
:101940001093270210922602109225026093210222
:10195000709322028093230290932402109220021B
:1019600088EA91E0E2CE48E8441643E15406610477
:10197000710408F4DCCE109301016093310270937E
:101980003202809333029093340282ED91E0CDCE07
:1019900083ED92E00E94B40689ED92E00E94B406C5
:1019A0008FED92E00C94B4061F93FC0199278827D1
:1019B000BC01E89411911032E9F3193010F01E3097
:1019C000C8F31B3251F01D3249F4689406C00E94DE
:1019D000060D610F711D811D911D119110531A305B
:1019E000B0F33EF490958095709561957F4F8F4F41
:1019F0009F4F1F910895BB274A3031F4992322F459
:101A0000BDE2909581959F4F0C943E0D592F482F24
:101A1000372F262F660F771F881F991F660F771F96
:101A2000881F991F620F731F841F951F660F771FF2
:101A3000881F991F0895BB27FA01A62F6217710509
:101A400081059105330B30FB66F0AA27660F771FDF
:101A5000881F991FAA1FA21710F0A21B6395385068
:101A6000A9F7A05DAA3308F0A95DA19336F7B111DB
:101A7000B1931082CA010C94600DBB27FB0155275E
:101A8000AA27880F991FAA1FA41710F0A41B8395DB
:101A90005051B9F7A05DAA3308F0A95DA193009752
:101AA00079F7B111B1931192CB010C94600D9111A2
:101AB0000C94700D803219F089508550C8F7089544
:101AC000DC01FC01672F71917723E1F7329704C0A5
:101AD0007C916D9370836291AE17BF07C8F3089530
:101AE000992788270895052E97FB1EF400940E94DD
:101AF0008A0D57FD07D00E94DC0D07FC03D04EF481
:101B00000C948A0D50954095309521953F4F4F4F3D
:101B10005F4F089590958095709561957F4F8F4F99
:101B20009F4F08950E94FE0DA59F900DB49F900DAC
:101B3000A49F800D911D11240895B7FF0C94920D60
:101B40000E94920D821B930B08952F923F924F9209
:101B50005F926F927F928F929F92AF92BF92CF923D
:101B6000DF92EF92FF920F931F93CF93DF93CDB746
:101B7000DEB7CA1BDB0B0FB6F894DEBF0FBECDBFBE
:101B800009942A88398848885F846E847D848C848F
:101B90009B84AA84B984C884DF80EE80FD800C8198
:101BA0001B81AA81B981CE0FD11D0FB6F894DEBF7B
:101BB0000FBECDBFED010895A1E21A2EAA1BBB1BDB
:101BC000FD010DC0AA1FBB1FEE1FFF1FA217B30709
:101BD000E407F50720F0A21BB30BE40BF50B661F1F
:101BE000771F881F991F1A9469F7609570958095E3
:101BF00090959B01AC01BD01CF010895A29FB0015A
:101C0000B39FC001A39F700D811D1124911DB29F30
:101C1000700D811D1124911D08950E94FE0D332326
:101C200012F48A1B9B0B0C94170E0E94FE0DB7FF3B
:101C30000895821B930B0895EE0FFF1F0590F491FA
:101C4000E02D09940F931F93CF93DF93823091057A
:101C500010F482E090E0E091E702F091E80230E0D9
:101C600020E0B0E0A0E0309799F42115310509F4A7
:101C70004AC0281B390B24303105D8F58A819B8155
:101C80006115710589F1FB0193838283FE0111C007
:101C9000408151810281138148175907E0F04817AC
:101CA000590799F4109761F012960C9312971396B6
:101CB0001C933296CF01DF91CF911F910F91089520
:101CC0000093E7021093E802F4CF2115310551F09B
:101CD0004217530738F0A901DB019A01BD01DF016A
:101CE000F801C1CFEF01F9CF9093E8028093E702AA
:101CF000CDCFFE01E20FF31F819391932250310962
:101D000039832883D7CF2091E5023091E602232B37
:101D100041F420910501309106013093E6022093B1
:101D2000E50220910301309104012115310541F4B0
:101D30002DB73EB74091070150910801241B350B88
:101D4000E091E502F091E602E217F307A0F42E1B02
:101D50003F0B2817390778F0AC014E5F5F4F24170F
:101D6000350748F04E0F5F1F5093E6024093E5029F
:101D7000819391939FCFF0E0E0E09CCFCF93DF93EE
:101D80000097E9F0FC01329713821282A091E702DA
:101D9000B091E802ED0130E020E01097A1F420813D
:101DA0003181820F931F2091E5023091E6022817BE
:101DB000390709F061C0F093E602E093E502DF9194
:101DC000CF910895EA01CE17DF07E8F54A815B81DC
:101DD0009E0141155105B1F7E901FB83EA83499161
:101DE0005991C40FD51FEC17FD0761F480819181D3
:101DF0000296840F951FE9019983888382819381DC
:101E00009B838A83F0E0E0E012968D919C9113977A
:101E10000097B9F52D913C911197CD010296820F53
:101E2000931F2091E5023091E6022817390739F611
:101E3000309751F51092E8021092E702B093E60253
:101E4000A093E502BCCFD383C28340815181840F2C
:101E5000951FC817D90761F44E5F5F4F888199813C
:101E6000480F591F518340838A819B8193838283CA
:101E70002115310509F0B0CFF093E802E093E702B5
:101E80009ECFFD01DC01C0CF13821282D7CFB0E01C
:101E9000A0E0EDE4FFE00C94A70D8C01009751F455
:101EA000CB010E94220E8C01C801CDB7DEB7E0E164
:101EB0000C94C30DFC01E60FF71F9C012250310961
:101EC000E217F30708F49DC0D901CD91DC91119779
:101ED000C617D70798F0C530D10530F3CE01049767
:101EE0008617970708F3C61BD70B2297C193D19388
:101EF0006D937C93CF010E94BE0ED6CF5B01AC1ACE
:101F0000BD0A4C018C0E9D1EA091E702B091E80223
:101F1000512C412CF12CE12C109731F58091E502E8
:101F20009091E6028815990509F05CC0461657069F
:101F300008F058C08091030190910401009741F48A
:101F40008DB79EB74091070150910801841B950BF6
:101F5000E817F90708F055C0F093E602E093E502B0
:101F6000F90171836083A0CF8D919C911197129696
:101F70006C90129713967C901397A815B90559F594
:101F80006C0142E0C40ED11CCA14DB0420F1AC0188
:101F90004A195B09DA011296159780F06282738202
:101FA00051834083D9016D937C93E114F10471F066
:101FB000D7011396FC93EE93129776CF22968C0F4F
:101FC0009D1FF90191838083F301EFCFF093E80225
:101FD000E093E70269CF4816590608F42C017D0109
:101FE000D3019ACFCB010E94220E7C01009749F0C9
:101FF000AE01B8010E940410C8010E94BE0E870104
:1020000053CF10E000E050CFFB01DC0102C0019093
:102010000D9241505040D8F70895FB01DC018D919D
:10202000019080190110D9F3990B0895FB01DC018F
:1020300001900D920020E1F7089510E0C2E6D0E093
:1020400004C0FE010E941C0E2196C336D107C9F7B9
:04205000F894FFCF32
:102054000101010000E9028000000000002D018D53
:1020640000BA007A01EB00C900DD000D0A00442A21
:10207400004F4E004F4646005472616E6700566131
:102084006E67004475206C69657520747520466917
:102094007265626173653A2000542A00492A00433C
:1020A400756F6E6720646F2073616E673A20005409
:1020B4007520646F6E672073616E673A20004D610E
:1020C400752064656E3A20004461206E686170205A
:1020D4006E68617920647520736F206C616E2E20A8
:1020E400426174206461752074686F692067696156
:1020F4006E206E6768692100446120686F63206404
:102104007520313020706875742E2044656E20620D
:10211400617420646175206E686170206E686179F5
:1021240021004461206E6768692064752035207041
:102134006875742E2051756179206C61692063681B
:0A2144006520646F20686F632100BE
:00000001FF
